:0200000460009A
:100000004643464200000156000000000103030081
:1000100000000000000000000000000000000000E0
:1000200000000000000000000000000000000000D0
:1000300000000000000000000000000000000000C0
:1000400000000000010408000000000000000000A3
:10005000000000010000000000000000000000009F
:100060000000000000000000000000000000000090
:100070000000000000000000000000000000000080
:10008000EB04180A063204260000000000000000FD
:10009000050404240000000000000000000000002F
:1000A0000000000000000000000000000000000050
:1000B0000604000000000000000000000000000036
:1000C0000000000000000000000000000000000030
:1000D00020041808000000000000000000000000DC
:1000E0000000000000000000000000000000000010
:1000F0000000000000000000000000000000000000
:10010000D8041808000000000000000000000000F3
:100110000204180804200000000000000000000095
:1001200000000000000000000000000000000000CF
:10013000600400000000000000000000000000005B
:1001400000000000000000000000000000000000AF
:10015000000000000000000000000000000000009F
:10016000000000000000000000000000000000008F
:10017000000000000000000000000000000000007F
:10018000000000000000000000000000000000006F
:10019000000000000000000000000000000000005F
:1001A000000000000000000000000000000000004F
:1001B000000000000000000000000000000000003F
:1001C000000100000010000001000000000000001D
:1001D000000001000000000000000000000000001E
:1001E000000000000000000000000000000000000F
:1001F00000000000000000000000000000000000FF
:10020000FFFFFFFFFFFFFFFFFFFFFFFFFFFFFFFFFE
:10021000FFFFFFFFFFFFFFFFFFFFFFFFFFFFFFFFEE
:10100000D1002043491600600000000000000000ED
:10101000201000600010006000D00260000000009E
:101020000000006000DC020000000000FFFFFFFF86
:10103000FFFFFFFFFFFFFFFFFFFFFFFFFFFFFFFFC0
:10104000FFFFFFFFFFFFFFFFFFFFFFFFFFFFFFFFB0
:10105000FFFFFFFFFFFFFFFFFFFFFFFFFFFFFFFFA0
:10106000FFFFFFFFFFFFFFFFFFFFFFFFFFFFFFFF90
:10140000814205D051F8043B40F8043B8242F9D8B0
:10141000704700BF044A05494FF0000342F8043BFF
:101420009142FBD8704700BFC04E0020E06A002008
:101430002DE98848BFF34F8F00BF00BF00BF00BF3A
:1014400000F0FEF9674B0822C3F8542100BF00BF2B
:1014500000BF00BF00BF00BF00BF00BF00BF00BF94
:1014600000BF00BF00BF00BF00BF00BF5E4A5F49B2
:101470005F48FFF7C5FF5F4A5F496048FFF7C0FF5D
:101480005F4CFFF7C7FF4FF470004FF0E0210023DF
:101490005C4AC1F8880D44F823200133B02BFAD1FF
:1014A000594B8021594A03F8011B9342FBD14FF05D
:1014B000E0254C4E4FF08039DFF880B1DFF880A195
:1014C0004FF0FF31C5F8084D0027C6F80491C6F863
:1014D00000B1C6F8F490C6F8F0A0D5F8243DDFF8C6
:1014E000648143F4E0234A4AC5F8243DD8F81C300F
:1014F00023F07F0343F04003C8F81C30D8F82430B1
:1015000023F07F0343F04003C8F824309166D1668E
:101510001167516700F09CF93E4B3F49A3633F4B75
:10152000E36363236B610323AF612B613C4BC5F81D
:10153000203DD5F8FC3D43F08073C5F8FC3D394BA8
:101540001A6842F001021A605B680B6000F008FA4A
:10155000C6F804913448C6F800B1C6F8F490C6F84D
:10156000F0A000F07DFBD8F86C10304B304A41F40D
:101570004051C8F86C101F60C3F80871C3F81871A7
:10158000C3F82871C3F83871936BDB0708D442F6AF
:101590001563284951651365936B43F00103936309
:1015A000234A254C936843F00113936000F01EF921
:1015B00000F04EFB00F002FA00F044F92368132B10
:1015C000FCD900F093FA2368B3F5967FFBD300F0C3
:1015D0003DF900F039F900F047FB00F02DFB30BF7A
:1015E000FDE700BF00800D40A85E0200001F006004
:1015F00000000000C04E0020AC7D02600000002012
:10160000004C0020B58B010000E400E0A0E400E005
:1016100000C00A4099730100406300209D730100DF
:1016200000002020001000E00046C32300400840D6
:1016300000400D400000C056446300201B101820DD
:101640000C0D111300C00F40054B4FF42A01054A41
:1016500005485A641864054A99639546FFF7E8FE01
:1016600000C00A40FFABAAAA0700200000800520A6
:1016700043690A4A03EB011010B4037A084C02EBE9
:101680000313D3E901321460C2681A6003690BB115
:1016900042691A605DF8044B704700BF882B002038
:1016A00061F801004369027E03EB021292F808C060
:1016B0008C451CD01A7AFF2A19D0914210B50446E5
:1016C00016D01A7EFF2A06D00121D3E90023126822
:1016D0001A4201D1217610BD064B0522204603EBAC
:1016E0000C135B681A60FFF7C3FF2176F3E77047BE
:1016F0000021EAE7882B002043690A4A03EB011026
:1017000010B490F82830084C02EB0313D3E90132EF
:101710001460C26A1A60036B0BB1426B1A605DF809
:10172000044B7047882B002061F801004369427E1A
:1017300003EB021292F828C08C451ED093F82820A3
:10174000FF2A1AD0914210B5044617D093F83820DA
:10175000FF2A06D00121D3E9002312681A4201D1E1
:10176000617610BD064B0522204603EB0C135B6827
:101770001A60FFF7C1FF6176F3E770470021EAE7DF
:10178000882B0020164942698B6B23F47C0343F4B9
:10179000802370B58B630446124DD2E900130A68AA
:1017A0001A4303690A60022200211A610E4A196174
:1017B0009A6401225A629D624FF43035DD624FF027
:1017C00001159E6C1E6519629D651A61017EFFF709
:1017D0004FFF617E2046BDE87040FFF78DBF00BF20
:1017E00000C00F40B80B05053B372819104BA0204F
:1017F000104AD96E41F4403110B4D96640F23764D2
:10180000D96E41F44071D96654649064936C1B06A0
:10181000FCD4094A40F23761A02351649364936C6D
:1018200013F08003FBD1054A13705DF8044B704739
:1018300000C00F4000400C4000800C40AB6A00200C
:10184000704700BF704700BF704700BF00BF7047C0
:1018500010B44FF0E023002110243148C3F8941D48
:10186000C3F89C4D1124C3F8A00D2E48C3F89C4D1D
:101870001224C3F8A00D2C48C3F89C4D2B4AC3F882
:10188000A00D2B4C42F015022A48C3F89C4DC3F81A
:10189000A00D294C2948C3F89C4DC3F8A00D284C35
:1018A000C3F89C2D2748284AC3F8A04DC3F89C0DC7
:1018B000C3F8A02D02F5A022244C0C322448C3F812
:1018C0009C4DC3F8A02D234AC3F89C0D224CC3F8AD
:1018D000A02D02F14062C3F89C4D2048C3F8A02D12
:1018E0000C32C3F89C0DC3F8A02D00BF00BF00BF91
:1018F00000BF00BF0122C3F8942DBFF34F8FBFF389
:101900006F8FC3F8501FBFF34F8FBFF36F8FD3F8A4
:10191000142D5DF8044B42F44032C3F8142D704787
:101920003F0000102500080709001000E06A0020B1
:1019300013002000210002071400002025000813D6
:10194000090000101600202027000B13170000408C
:10195000180000602F000B07190000701A000080AB
:10196000F0B4154A40274FF480314FF480564FF4BD
:1019700000554FF4404443F24200136913F0020F44
:101980000ED113F4005F0FD013F4805F0ED0002B44
:10199000F3DA13F4803F0BD15B060BD5F0BC704734
:1019A000946151619061E8E75561E6E75661E4E7CB
:1019B0009161E2E75761E0E700800D403F4A032074
:1019C0003F49F3EE095AD2F880304FF0000C9FEDFA
:1019D0003D6A23F001039FED3C5A30B4C2F88030D9
:1019E000C2F89000D1F8E010384DCBB2384C3948ED
:1019F0002B6007EE903A0B0DC1F30B21F8EEE77A5E
:101A000006EE903A07EE101A334BB8EEC77A216013
:101A1000F8EEE66A314937EEC66A37EEC55A76EE19
:101A2000C76A77EEE57A26EE266AC3ED006A25EEF0
:101A3000265AD2F8803067EEA64AC0ED007AC6EE8C
:101A4000275A274885EE276AC4EEA76A75EE875A9B
:101A5000FCEEE55A36EE076A15EE904ABCEEC66A11
:101A600043EA045376EE877AC2F8803016EE103AD5
:101A7000D2F89041FCEEE77A01EA0341214317EEE8
:101A8000903AC2F89011C3F30B03D2F890110B43B4
:101A90001449C2F89031D2F8803043F00203C2F802
:101AA0008030114B80F840C0C1F840314FF0E02346
:101AB000012230BCC3F80821704700BF00810D40EF
:101AC00000441F400000AA420000B44268620020A7
:101AD000646200206C620020706200200000FF0F32
:101AE00000E400E0004C00209D8D0100314B40F6E9
:101AF000617210B5C3F8202140F2044400F0A4F84C
:101B00002D4A2E49D2F880302D4843F00303C2F805
:101B100080302C4BC1F8604102681A4203D1D1F8E1
:101B2000A8319A071BD0254A4FF00041244B596336
:101B3000D2F8403143F00203C2F84031D2F84031CC
:101B40009B07FBD44FF400304FF0E0211C4B4FF0CB
:101B50000042C1F88C0219209A6300F071F8184A0B
:101B60004FF08040154C002190630A20164B116005
:101B70004FF42072C4F8A801184600F06DF84FF435
:101B8000800203464FF4810040F243111860C4F80C
:101B900058311A640D4B0E4AC4F84811C3F8042298
:101BA0004FF0E0224FF400310123C2F80C11C4F8C9
:101BB000403110BD00800D4000C00F4000002E409D
:101BC00000900D40001C1E0000000020004C002072
:101BD000858F010008B50E4B1B6E9B0700D4FBBE22
:101BE00072B60C4B00200C4AC3F8400103F160436D
:101BF0000A49A3F55F2311649D46BFF34F8F4FF44D
:101C000000130748074ADB6902609B68984700BFDA
:101C100000441F4000002E4000C00A400300200086
:101C200000802020000012EBF8B500BFF8BC08BC13
:101C30009E467047000000005FF800F0BD84010080
:101C40005FF800F0898101005FF800F0F59601006F
:101C50005FF800F0398A01005FF800F0F1F101004F
:101C60005FF800F0997E01005FF800F019FD0100B7
:101C7000050100001D020000ED500000B5540000F9
:101C800035650000956700005D6E0000657A000014
:101C9000717A00003995000045BB00004DE000005E
:101CA000D1FA0000C9170100651E0100112B0100C7
:081CB00019400100F17C010064
:101CB80070C00F400003000029000000120000005F
:101CC800D8841F4001000000FF000000FF00000052
:101CD80000000000000000002800000012000000C2
:101CE800D4841F4001000000FF000000FF00000036
:101CF80000000000000000001D0000000954010061
:101D080080C00F4000000003190000001000000010
:101D1800E8841F4001000000FF000000FF000000F1
:101D28000000000000000000180000001000000083
:101D3800E4841F4001000000FF000000FF000000D5
:101D480000000000000000001F000000FD5301001B
:101D580070C00F40000C00001100000011000000CE
:101D6800E0841F4002000000240000001200000070
:101D7800E0841F4001000000100000001100000076
:101D8800DC841F4002000000250000001200000053
:101D9800DC841F40010000001E000000F153010018
:101DA80070C00F40C00000001200000013000000C7
:101DB800D0841F4001000000FF000000FF00000069
:101DC80000000000000000001300000013000000E5
:101DD800CC841F4001000000FF000000FF0000004D
:101DE80000000000000000001C000000E553010096
:101DF800160355005300420020005300650072008E
:101E0800690061006C00000018035400650065005B
:101E18006E00730079006400750069006E006F0041
:101E28000403090409026200030100C032080B0020
:101E38000202020100090400000102020100052457
:101E480000100105240101010424020605240600EE
:101E5800010705820310001009040100020A0000AE
:101E6800000705030240000007058402400000093E
:101E780004020002FF6AFF00070581024000010713
:101E8800050102400001000009026200030100C0D0
:101E980032080B00020202010009040000010202DC
:101EA8000100052400100105240101010424020693
:101EB8000524060001070582031000050904010036
:101EC800020A000000070503020002000705840259
:101ED8000002000904020002FF6AC7000705810228
:101EE8000002010705010200020100000A060002C3
:081EF800EF02014001000000AF
:101F000000000000000000000000000000000000D1
:101F100000000000000000000000000000000000C1
:101F2000F8B54FF084439D695A6915400DD0254F8F
:101F300001269D6195FAA5F4B4FA84F457F824308B
:101F400006FA04F49847A543F4D11F4B9D695A69DA
:101F500015400DD01D4F01269D6195FAA5F4B4FAE8
:101F600084F457F8243006FA04F49847A543F4D1D2
:101F7000174B9D695A6915400DD0164F01269D617A
:101F800095FAA5F4B4FA84F457F8243006FA04F468
:101F90009847A543F4D1104B9D695A6915400DD05F
:101FA0000E4F01269D6195FAA5F4B4FA84F457F812
:101FB000243006FA04F49847A543F4D1BFF34F8FB9
:101FC000F8BD00BF144400200040004294440020AB
:101FD000008000421445002000C0004294450020CB
:101FE0000548064B1B1AD90F01EBA301491002D07B
:101FF000034B03B118477047C04E0020C04E00206D
:102000000000000008B5054B1BB105490548AFF3BA
:102010000080BDE80840FFF7E3BF00BF00000000FC
:10202000905E002000DC0260014805F0ADB900BF01
:10203000F8620020034B197801B17047024804F0A0
:10204000D7BC00BFBA6A0020505E002030B50A201D
:1020500085B017F071FE0D2018F0E8FC214C5021DE
:10206000214A00232046CDE90121009301224FF4AB
:10207000005105F059F808B90123A3714FF4FA6033
:10208000072418F001F81948194901230094002287
:10209000184DCDE901100A21174806F01FF8012359
:1020A0001648002219460094154CCDE90105124846
:1020B00006F014F80620134919230A22CDE900106E
:1020C0002046114907F094FB06F0F2FD4FF4FA6147
:1020D000094806F089F90D4805F056F901232370E7
:1020E00005B030BD505E002058380020D42F0020AD
:1020F00035010000DC2F00204C6300202901000086
:102100006464002024210020E42F0020F8620020D5
:10211000014806F015B900BF4C6300200B4B0022AC
:102120000B480C4910B4012483F838209A809A7126
:102130001A821A839A841A631960DA63C3E9024027
:10214000C3E90A225DF8044B704700BF505E0020CF
:102150000000FFFF4026002030B585B00C46054644
:1021600003A91EF085FD03998D4200F092802C2179
:10217000284653EC102B226063601FF02BF80028D8
:1021800000F08780451C28461DF07CF903462C2171
:10219000284623721FF01EF800287AD0451C2846D6
:1021A0001DF070F907EE900A2C212846F8EEE77A28
:1021B00017EE903AC4F821301FF00CF8002868D0D0
:1021C000451C28461DF05EF907EE900A2C21284692
:1021D000F8EEE77A17EE903AC4F825301EF0FAFFD1
:1021E000002856D0013001901DF048F9B7EEC00B21
:1021F0002C21019810EE103AC4F809301EF0EAFFC5
:10220000002846D0013001901DF038F9B7EEC00B20
:102210002C21019810EE103AC4F80D301EF0DAFFB0
:10222000B8B3013001901DF029F9B7EEC00B2C2195
:10223000019810EE103AC4F811301EF0CBFF40B3F5
:10224000013001901DF01AF9B7EEC00B2C21019856
:1022500010EE103AC4F815301EF0BCFFC8B10130C2
:1022600001901DF00BF9B7EEC00B2C21019810EE78
:10227000103AC4F819301EF0ADFF50B101301DF016
:10228000FDF8B7EEC00B012010EE103AC4F81D3077
:1022900000E0002005B030BD82B070B582B00446C9
:1022A000006806A9009281E80C00DDF83530079A35
:1022B00002EE903ADDF83130019202EE103ADDF88C
:1022C0002D30DDF8395001EE903ADDF82930DDF897
:1022D0003D6001EE103ADDF8253000EE903ADDF871
:1022E000213000EE103A03681B699847002867D038
:1022F00094F83E30B7EE005B9FED397A752BDFED39
:10230000397A94F84310384A07FE277A374B14BFBE
:102310004FF4B47200239FED2E6B06FE056BA9B13E
:10232000DFED337A04EE905A64EEA74A9FED2A5B04
:1023300014EE905A04EE906A64EEA77A9DED004B7D
:1023400017EE906A84EE055B8DED005B9DED005B02
:10235000B4EEC65BF1EE10FA31D4B7EEC77AB4EE44
:10236000C75BF1EE10FA2ADC9DF820100231C9B2E9
:10237000012924D807EE903A07EE105AF8EEE77AD2
:10238000F4EEC77AF1EE10FA19DC07EE102A06EE29
:10239000905AB8EEC77AB4EEE67AF1EE10FA0ED49F
:1023A00006EE906AF4EEE67AF1EE10FA07DCB4EE8F
:1023B000E67AF1EE10FA54BF0120002000E0002080
:1023C00002B0BDE8704002B0704700BFAFF30080BC
:1023D000000000E04D62503FF8C1631ADCA54C409C
:1023E00000007A4400C8AF4820A1070098FEFFFF14
:1023F000E12E6542000000002DE9F04F2DED028B2B
:10240000DFB00D46002406466A990C7092F800C0B1
:10241000BCF1470F0FD0BCF1530F05D15278582AA9
:1024200002D11A78412A76D0002420465FB0BDEC54
:10243000028BBDE8F08F5278582AF5D19F78002F93
:10244000F2D11A78412A00F0D980552AECD15B7874
:10245000392B00F3F080303B90F830209342E3D1E9
:10246000014653A800F0F8FF9DF84C41002C00F005
:10247000DD80A34E28469DF85331A249002B08BFAA
:1024800031460A911FF0FCFB0A9928441FF094F989
:102490009D4B9DF84E11002914BF194631461FF07F
:1024A0008BF99A4B9DF85011002914BF19463146FB
:1024B0001FF082F9964B9DF84D11002914BF194663
:1024C00031461FF079F9934B9DF84F11002914BF45
:1024D000194631461FF070F98F4B9DF852110029B3
:1024E00014BF194631461FF067F98C4B9DF8511106
:1024F000002914BF194631461FF05EF9884B9DF83C
:102500005411884A002914BF114619461FF026FBB2
:102510006B9B1F7089E79A782C2A85D14FF49971AB
:1025200081480A9304F0B8FC0A9B96F830105A7858
:10253000303A8A427FF478AFC40777D540FA01F287
:10254000D20773D4DA78522A03D11A79002A00F01C
:1025500094800DF5A678371D93F803C0DC1C454622
:10256000BCF1300F0FCF0FC50FCF0FC597E8070095
:1025700003C52A7064D041462046FFF7EDFD0028D0
:1025800037D096F83070022F5ED8DDF87101DFED9C
:10259000677A07EE100A539A549B87EE277A43EC2A
:1025A000152BDDF86D219FED546B25EE066B17EEB4
:1025B000101A07EE102AC7EE277ACDF871118DEDAB
:1025C0000A6B0A9A53920B9A549217EE903ACDF8EE
:1025D0006D3155AD6C460FCD0FC40FCD0FC42B68B8
:1025E00039463046237098E80C00FFF755FE002866
:1025F00051D105236C9A1370012416E75B78A3F17F
:102600003104082C17DC303B90F8302093427FF4E3
:102610000BAF4FF49971444804F03EFCC30705D555
:1026200096F830301841C70740F1848001236C9A36
:102630001C461370F9E604236C9A01241370F4E627
:102640006378002BD5D096E7032FC2D0DDF86D312B
:10265000DFED377A07EE103ADDF8712127EE877A41
:1026600017EE103A07EE102A67EE877ACDF86D3133
:1026700017EE903ACDF87131ABE70124022353AA4B
:1026800004FA01F108434FF49971ADF84C01264862
:1026900004F06CFCC9E696F8301029234246013953
:1026A00001EB810001EBC0011F4801F59A7189B26D
:1026B00004F05CFC306843680B339DD1DDF8692180
:1026C000036802EE902ADDF86521DB6802EE102A2D
:1026D000DDF8612101EE902ADDF85D2101EE102A7E
:1026E000DDF8592100EE902ADDF8552100EE102A80
:1026F000984781E7AFF30080F8C1631ADCA54C402E
:1027000048210020442100204C210020502100209D
:1027100054210020582100205C210020602100204D
:102720002427002064210020505E0020E12E654215
:1027300000007A4404EB84022923654804EBC201BB
:1027400053AA01F59A7189B204F0E6FB96F830308D
:10275000022B00F29F8053985499DDF86D31DFED24
:102760005D7A07EE103ADDF871219FED576B41EC71
:10277000150B27EE877A85EE066B17EE103A07EEFB
:10278000102A67EE877ACDF86D3117EE903ACDF8C2
:1027900071318DED0A6BDDE90A23CDE95323DDE9C3
:1027A00053234D490DA817AC21AF0DF1AC080DF125
:1027B000D4090DF1FC0A0DF5927B43EC102B03F0CC
:1027C000BBFBDDF855312046434900EE103AB7EE29
:1027D000C00A03F0B1FBDDF859313F49384600EE3D
:1027E000103AB7EEC00A03F0A7FBDDF85D313A49B5
:1027F000404600EE103AB7EEC00A03F09DFBDDF84C
:1028000061313549484600EE103AB7EEC00A03F090
:1028100093FBDDF865313049504600EE103AB7EED3
:10282000C00A03F089FBDDF869312B49584600EEF8
:10283000103AB7EEC00A03F07FFBDDF86D31306867
:1028400008EE103A0368B8FE488A9968DDF87131DD
:1028500008EE903A9DF954310A93F8FE688A884749
:10286000FDEEE88ABDEEC88A0A9B0DAA0890029484
:1028700028461A4901240397CDED018A8DED008A7F
:10288000CDE906ABCDE904891EF0B2FA00236B9ABC
:102890001370CAE5032B82D0DDF86D31DFED107ABD
:1028A00007EE103ADDF8711187EE277A17EE102A3D
:1028B00007EE101AC7EE277ACDF86D2117EE903A81
:1028C000CDF871316BE700BFF8C1631ADCA54C404D
:1028D000505E0020E12E654268210020702100201A
:1028E00000007A4431B172B601234377836B4363AE
:1028F00062B6704741777047704700BF10B5044615
:10290000006803682DED028B1B6AB0EE408B984780
:1029100006EE900A6268B6EE004BB8EEE65BA3687E
:1029200043EC162B85EE066B94ED167B27EE044BDD
:1029300036EE045BB4EEC58BF1EE10FA06DD38EE30
:10294000478BB4EEC58BF1EE10FAF8DC36EE446B33
:10295000B4EEC86BF1EE10FA06DD38EE078BB4EE7C
:10296000C68BF1EE10FAF8D4B0EE480BBDEC028B3A
:1029700010BD00BF10B504462DED028BFFF7BEFF62
:102980002068B0EE408B03681B6A984707EE900AF8
:102990006268B8EEE76BA36843EC172B86EE077B03
:1029A00094ED162B38EE020B38EE476B37EE483BB2
:1029B00030EE475BB0EEC66BB0EEC33B37EE404B3C
:1029C000B0EEC55BB4EEC36BB0EEC44BF1EE10FAE3
:1029D000B4EEC45B88BFB0EE436BF1EE10FA88BF73
:1029E000B0EE445BB4EEC65BF1EE10FA16D438EEEE
:1029F000420B30EE475B37EE407BB0EEC55BB0EE8E
:102A0000C77BB4EEC75BF1EE10FA88BFB0EE475B50
:102A1000B4EEC56BF1EE10FA30FE080BBDEC028B84
:102A200010BD00BF9C464FF07E53DFED657A2DE967
:102A3000F04FC0F8903000230025924683670022B3
:102A4000C3670446C0F8803001F1300BC0F8843011
:102A50008E46C0F888304F1EC0F88C30C0F89830D1
:102A60000023584EA0F84C5080F82D50A0F84E503E
:102A700080F82F5080F85050A0F8605080F86250D5
:102A800080F86C509DF82480DFF86C91C0E91C55EB
:102A9000C0E916230FCEC4F83100C4F83510C4F8CD
:102AA0003D30C4F8392003CEC4F84100C4F84510C5
:102AB0009CF8081084F83AB02173DCF80910DCF8AF
:102AC00004B0C4F8B4A0C4F82510DCF800A0DCF809
:102AD0000D1084F89C5084F830E0C4ED2A7AC4EDDF
:102AE0002B7A84F8B050C4F8B850C4F82910C4E95F
:102AF00001ABDCF8113049F82740C4F89430082FB6
:102B000009D8DFE807F04145494D515559053D00C9
:102B10002D4BC4F8B830B8F1030F0AD8DFE808F03D
:102B2000281D020E294B18681B79C4F83E0084F852
:102B30004230204684ED260ABDE8F08F234B012267
:102B400084ED260A18681B79C4F83E00204684F8F4
:102B5000432084F84230BDE8F08F1D4B204684EDC1
:102B6000260A1A889B78E28784F84030BDE8F08F07
:102B7000184B204684ED260A1B88E387BDE8F08FBA
:102B8000154BC4F8B830C6E7144BC4F8B830C2E7E8
:102B9000134BC4F8B830BEE7124BC4F8B830BAE7EC
:102BA000114BC4F8B830B6E7104BC4F8B830B2E7F0
:102BB0000F4BC4F8B830AEE70E4BC4F8B830AAE7F4
:102BC0000000C07FF01D0020991D00009C21002006
:102BD0009821002094210020AD1D00000D1D000053
:102BE000211D0000351D0000491D00005D1D000075
:102BF000711D0000851D00002C5B00202DE9F043B5
:102C0000034699B00E4600F11D0200F12101071D97
:102C100043F8156B0446B64DCDE9012100F11901C9
:102C200000F11102009100F10D01304601F0AEF803
:102C3000BE460DF1340C95F82C80BEE80F00ACE8D0
:102C40000F00BEE80F00ACE80F009EE80700ACE8FC
:102C500003008CF80020B8F1000F00F026810DF180
:102C60002C094FF49971A24804F016F910F0010FE5
:102C7000804694F8303004D101229A4002431FFA72
:102C800082F85D1E48FA03F305EB8502D80705EBD1
:102C9000C20505F59A75ADB200F1FB8029222946DF
:102CA000934804F01FF9002840F0F38094F8302096
:102CB00001234FF499718E4893404A4628EA03084D
:102CC0000223ADF82C8004F10C0804F04FF92923FD
:102CD0003A462946864804F01FF9C646EC46BEE847
:102CE0000F00ACE80F00BEE80F00ACE80F00DEF804
:102CF000003020468CF8003094F8301097E80C0033
:102D0000FFF7CAFA50BB0DF1340CBE46BCE80F0009
:102D1000AEE80F00BCE80F00AEE80F009CE807002B
:102D20002923AEE80300294671488EF800203A4670
:102D300004F01CF96D46B8E80F000FC5B8E80F00A5
:102D40000FC5D8F8003020462B7094F8301097E863
:102D50000C00FFF7A1FA002800F0A280D4F8B4100C
:102D6000002564488B6891F90C20B1F90210009598
:102D700004F0D0FAD4F8B41084F846005D484B69EA
:102D800091F91C20B1F90010009504F0C3FAD4F8B1
:102D9000B41084F8470057488B6991F91C20B1F9A9
:102DA0000410009504F0B6FAD4F8B42084F8480072
:102DB000B2F90030591C05D0B2F90450ED1AB5FA39
:102DC00085F56D093368304684F82D501B689847A7
:102DD0000546002864D0336830469B6898474F28E2
:102DE0007AD0D4F8213002EE903AD4F81D30304633
:102DF00002EE103AD4F8193001EE903AD4F81530BA
:102E000001EE103AD4F8113000EE903AD4F80D30BB
:102E100000EE103A3368DB689847336894F90C1079
:102E200030465B68984794ED257A62683046B7EE85
:102E3000C77AA36843EC162B26EE070B33685B6B4F
:102E4000B7EEC00B98472C4BCDF8089094F8302083
:102E500093E8030030320B0C0B90ADF830108DF876
:102E600032300123D4F8B8108DF82E2000222348E8
:102E7000CDE90031114605F031F940F26C7204469B
:102E800001461E4805F0E2F92846747219B0BDE803
:102E9000F08329233A462946154804F067F805E7E8
:102EA0000025284619B0BDE8F0834FF499712846F3
:102EB00003F0F2FF94F83010012203460DF12C09C3
:102EC00028468A404FF4997113434A46ADF82C3096
:102ED000022304F04BF8C4E6D4E9012343EC172B9A
:102EE000F7EEC72B12EE903AC4F821307DE700BF11
:102EF000505E0020F86200203C2100204C6300203E
:102F0000026890F86C3010B483F00103146880F804
:102F100044101046194062695DF8044B104700BF29
:102F200038B505460C4611B985F8621038BD90F8E1
:102F30006C303BB1006800220121036885F86C20E9
:102F40005B699847034B01221B6885F862201C448B
:102F5000AC6638BD4463002090F89C2002B17047F5
:102F60000346B7EEC00A30B444689D68006845EC7B
:102F7000174B27EE007B30BCB8FE477BFDEEC77BCE
:102F800017EE901A00F0A2BF70B590F89C608EB951
:102F9000044600680D460368DB6A9847B5EE400AB0
:102FA000F1EE10FA06D1206829460368DB699847DC
:102FB000304670BD1626304670BD00BF10B5D0E952
:102FC0000123044643EC172B27EE000B18F060FF9B
:102FD00001462046BDE81040FFF7D6BFD0E90012F9
:102FE000836891ED0F0AB8EEC00B43EC172B80EE0F
:102FF000070B704790F8603010B5044693B1FFF7A7
:103000007DFCB0EE407BD4E9012343EC162B26EE89
:10301000070B18F03DFF014620680268BDE810402C
:10302000536A1847B0EE407BEDE700BF10B5044689
:10303000006803681B6A984707EE900A6268B8EE5A
:10304000E77BA36894F8601043EC162B87EE060B21
:1030500039B3D4F8293007EE103AB7EEC77AB4EE98
:10306000C70BF1EE10FA08DD94ED166B30EE460B4F
:10307000B4EEC70BF1EE10FAF8DCD4F8253007EE09
:10308000103AB7EEC77AB4EEC07BF1EE10FA08DD65
:1030900094ED166B30EE060BB4EEC07BF1EE10FA39
:1030A000F8DC10BD38B590F8603004460568BBB94F
:1030B000B0EE407BD4E9012343EC162B26EE070B40
:1030C00018F0E6FED4F80D200146284607EE902AB7
:1030D000FDEEE77ABDE8384017EE902A00F08CBE8E
:1030E000FFF748FCB0EE407BE4E700BF38B504468C
:1030F000006803682DED028B1B6BB0EE408B9FEDDB
:10310000130A984794F860302568BBB9D4E90123C5
:1031100043EC172B27EE080B18F0BAFED4F80D205D
:103120000146284607EE902AFDEEE77ABDEC028BB9
:1031300017EE902ABDE8384000F09CBEB0EE480B78
:103140002046FFF717FCB0EE408BDFE700000000E1
:1031500090F8603010B504467BB9B0EE407BD4E9FE
:10316000012343EC162B26EE070B18F091FE0146C7
:103170002068BDE8104000F077BEFFF7FBFBB0EE23
:10318000407BECE710B50446006803689B6A9847EB
:1031900094ED257A00286268A368B7EEC77AB8BFB5
:1031A000404243EC152B25EE077B06EE900AB8EE65
:1031B000E66BB4EEC76BF1EE10FA4CBF01200020B5
:1031C00010BD00BF90F89C3083B9DFED096AD0EDE7
:1031D000257A80EE267A074BC0F8A830B4EEE77A5D
:1031E000F1EE10FA77FE877AC0ED287A704700BFBB
:1031F000369403440000C07F90F89C3083B9DFED23
:10320000096AD0ED257A80EE267A074BC0F8AC30FB
:10321000B4EEE77AF1EE10FA77FE877AC0ED297AFC
:10322000704700BF369403440000C07F90F89C00B4
:10323000003818BF0120704780ED200A704700BF9A
:10324000D0ED217AF5EE407AF1EE10FA05D0F4EEE9
:10325000407AF1EE10FA37FE800AD0ED237AF5EECF
:10326000407AF1EE10FA06D0F4EE407AF1EE10FA60
:1032700048BFB0EE670AD0ED2A7A80ED220AF4EE5C
:10328000677AF1EE10FA07D6C0EE276A9FED0A7A48
:10329000C6EE877AC0ED287AD0ED2B7AF4EE677A05
:1032A000F1EE10FA07D6C0EE276A9FED037AC6EE5C
:1032B000877AC0ED297A704736940344D0ED247A9A
:1032C00090F8613010B504462DED028B20EE278A70
:1032D00023B1B5EE408AF1EE10FA57D094F86C3075
:1032E000002B4AD15A4A636E126813442367B5EE25
:1032F000408AF1EE10FA19D0B5EEC08AF1EE10FA5C
:103300007BD4D4ED217AF5EE407AF1EE10FA05D0B7
:10331000F4EE487AF1EE10FA37FE888AD4ED237A7B
:10332000F5EE407AF1EE10FA40F0878094F84430E0
:10333000CBB194F89C30002B4DD1D4ED207AA3680A
:1033400038EE270AD4E90002B7EEC00A016843EC60
:10335000172B20EE070B096BBDEC028BB7EEC00BF1
:10336000BDE81040084720689FED3A0A0368BDECAD
:10337000028B1B6BBDE8104018472068002201211A
:10338000036884F86C205B699847ABE7D0ED207A3E
:10339000F5EE407AF1EE10FAA0D190F86C30002BE7
:1033A000A5D190F86230002B4FD0294B816E1A685E
:1033B000521A002A9BDD1B680021226F84F86210DC
:1033C0009B1A8B4293DD20680122036884F86C20ED
:1033D0005B6998478BE7A368B7EEC80A6268206804
:1033E00043EC172B27EE000B01680B6BBDEC028B37
:1033F000B7EEC00BBDE810401847D4ED237AF5EEC8
:10340000407AF1EE10FA07D0F1EE677AF4EE487ADE
:10341000F1EE10FA37FE888AD4ED217AF5EE407A83
:10342000F1EE10FA82D0F1EE677AF4EE487AF1EE1E
:1034300010FA48BFB0EE678A78E7F4EE487AF1EE0A
:1034400010FA48BFB0EE678A70E7014BB3E700BFE0
:10345000446300200000000009680B6810B50446B2
:103460009B699847204610BD80F84510704700BF03
:1034700001F0FD03012B10B504461AD10068036862
:103480001B6A9847324B984203DD012084F82F00D5
:1034900010BD94F8453013B194F8B0302BB394F8C4
:1034A0002D30CBB994F82E00C0F3400084F82F00E3
:1034B00010BD023901290FD8006803681B6A9847BC
:1034C000244B9842E1DB94F8453013B194F8B030C6
:1034D00023B394F82D301BB1002084F82F0010BDC9
:1034E00094F82E0000F00100D0E72046FFF79EFD83
:1034F000B7EE006BA368626843EC172B86EE077B80
:10350000D4F8293006EE103AB7EEC66A37EE067BDD
:10351000B4EEC70BF1EE10FAB7DCC0E72046FFF7B8
:1035200085FDB7EE005B6268A368D4F8251043EC14
:10353000162B85EE066B07EE101AB7EEC77A37EE3C
:10354000467BB4EEC70BF1EE10FA9ED4C1E700BF84
:103550000033337300CDCC8C90F8443030B52DED72
:10356000028B85B0002B3BD090F89C500446002D78
:1035700030D10321B0EE408AFFF77AFF002835D121
:10358000216801A80B689B6998479DF80C309BBB8C
:10359000B4EE488AF1EE10FA04D6B0EE480A20469E
:1035A000FFF74EFE206800F097FC2068164903687C
:1035B000DA6B8A4222D1002242771B6C01219847A4
:1035C0000322002384F89C20E367284605B0BDEC65
:1035D000028B30BD1325284605B0BDEC028B30BDF3
:1035E0001125284605B0BDEC028B30BD14252846B8
:1035F00005B0BDEC028B30BD1525E6E700219047F4
:1036000020680368D9E700BFE509000090F844305E
:10361000002B4AD090F89C30032B30B504462DED9A
:10362000028B85B04AD04B1E0D46012B38D8B0EE28
:10363000408AFFF71DFF00283BD1216801A80B68D5
:103640009B6998479DF80C30002B30D1B4EE488A26
:10365000F1EE10FA04D6B0EE480A2046FFF7F0FD6E
:1036600094F89C3083B92068174A0368DB6B934257
:1036700026D172B601234377836B436362B6206819
:10368000012103681B6C9847012D4FF000000CBF0F
:103690000423052384F89C3005B0BDEC028B30BDBB
:1036A000172005B0BDEC028B30BD112070471520EE
:1036B000F7E7142005B0BDEC028B30BD1320F0E716
:1036C00001219847DBE700BFE509000090F844308E
:1036D00070B584B0002B5DD090F89C500446002D4E
:1036E00054D10E460321FFF7C3FE002856D12168AE
:1036F00001A80B689B6998479DF80C30002B51D1AD
:10370000D4F8B4309B6801333DD02068284A036860
:10371000DB6B934248D172B601234377836B4363DB
:1037200062B694F8B03013B9032384F8B03094F83B
:103730009C3023B92068012103681B6C984794F8DA
:1037400046101C4803F012FE002814BF0423052372
:1037500084F89C309EB9D4F8B43094ED226AD3ED4D
:10376000045ADFED156AC5EE867A9FED147A67EE8E
:10377000A67A67EE877AFCEEE77A17EE906A104B2E
:103780001B6833446367284604B070BD1325284680
:1037900004B070BD1125284604B070BD142528461C
:1037A00004B070BD1525EEE701219847B9E700BFC9
:1037B000E5090000F86200209A99993F00007A44D8
:1037C0004463002030B5044698482DED028B85B047
:1037D00094F8471003F0CAFD94F82E30024694F88E
:1037E0004810924862F3000384F82E3003F0BEFDC7
:1037F00094F82E3094F82D5060F3410384F82E3065
:1038000025B1DDB215F0030518BF012594F8B030DD
:1038100023B194F89C301A1F012A4DD9844804F032
:103820008FFD94F89C3013B12068027A12B3002304
:10383000A367002D55D00023C4F880307C4804F0E5
:103840007FFD204694ED1E0AFFF738FD2068794A77
:1038500003689B6D934279D194F89C3033B123680F
:103860009B7A1BB9002284F89C30A26705B0BDEC9E
:10387000028B30BD012B44D1D4ED1E7A94ED297A10
:10388000F4EEC77AF1EE10FA40F3758177EEC77A5D
:10389000F0EEE76AB4EEE67AC4ED1E7AF1EE10FAC5
:1038A000CCDB2068002103681B6C984700220023B2
:1038B00084F89C20A367C1E7042B00F0848094F86F
:1038C00046105A4803F052FD002840F050815A4BF0
:1038D000626F1B689B1A002BA0DD204600F014FAD3
:1038E0009CE703212046FFF7C3FD0028A3D12168F0
:1038F00001A80B689B6998479DF80C30002B9AD162
:103900009CE700F00BFB01462046FFF7B1FD00BB32
:10391000216801A80B689B6998479DF80C30C3B9D2
:1039200094F89C30032B13D0013B042B00F2D18080
:1039300001A252F823F000BF79190000451B0000D6
:10394000D31B00000B1B0000E31A0000984783E71D
:103950003DB1204605B0BDEC028BBDE8304000F023
:10396000D3B9206803689B6A984794ED267A0028AB
:103970006268B7EEC77AA368B8BF404243EC152B24
:1039800025EE077B06EE900AB8EEE66BB4EEC76B49
:10399000F1EE10FA00F2A3802068294603681B6C40
:1039A00098472068254A0021036884F89C50DB6B07
:1039B000A167934240F0FC8072B601234377836B8A
:1039C000436362B63AE794F84610184803F0CEFC19
:1039D000002800F0C88094F89C30052B7FF477AF66
:1039E0006DE7D4ED1E7AD4ED286A94ED227A77EE55
:1039F000E67AB1EE477AF4EE477AF1EE10FA48BF74
:103A0000F0EE477AC4ED1E7A18E7D4ED1E7AD4EDB5
:103A1000286A94ED227A77EEA67AF4EE477AF1EEF0
:103A200010FA77FE277AC4ED1E7A07E7F8620020C5
:103A30004C630020F909000044630020E509000000
:103A400052499D39002D84D1D4ED1E7A94ED287A07
:103A5000F4EEC77AF1EE10FA40F3998077EEC77A68
:103A6000F0EEE76AB4EEE67AC4ED1E7AF1EE10FAF3
:103A7000FFF6E4AE2068002103681B6C984794F8B9
:103A8000B03000220021032B84F89C20A16700F0B5
:103A90009780022B00F09880012B1DD0002B3FF463
:103AA000CDAED4ED227AF1EE086A1FED1B7A2046E6
:103AB000F0EEE77A514987EEA60AB4EE470AF1EE36
:103AC00010FA48BFB0EE470AFFF7BAFBFFF7FEFD5A
:103AD000B4E60023A367B1E684F8B020AEE6DFEDDC
:103AE000487A94ED288A206828EE278A00F000FAA8
:103AF00007EE900A6268A368B8EEE76B38EE088AB2
:103B000043EC172B86EE077BB7EEC88A27EE087BBF
:103B1000B7EEC77BB5EE407AF1EE10FA69D4B1EE9C
:103B2000C70AD4ED257A94ED227A2068F4EEC07AA3
:103B3000F1EE10FA77FE807AB4EEE77AF1EE10FA41
:103B400058BFB0EE677A84ED1E7A03689B6A984787
:103B5000D4ED1E7A0028BCBFF1EE677AC4ED1E7A60
:103B6000C4ED1F7A6AE6204600F0AAF833E7204643
:103B700000F0A6F8ABE6F1EE476AF4EEE67AF1EE75
:103B800010FA10D577EE877AF0EEE76A82E6F1EE6A
:103B9000476AF4EEE67AF1EE10FA0CD577EE877A02
:103BA000F0EEE76A5EE7DFED177AF0EE676A71E63E
:103BB0000121984742E6DFED137AF0EE676A51E79C
:103BC000022384F8B0306CE794F846100E4803F0F6
:103BD000CDFB18B9012384F8B03062E7B1EE087A62
:103BE000D4ED227A94F8B03067EE877AC4ED227A69
:103BF00054E7B0EE470A19F0B1F892E7C0D40100DB
:103C00003694034400000000F8620020034B18685B
:103C100090F8303003B97047FFF7D4BD2C5B00201B
:103C2000034B586890F8303003B97047FFF7CABDAE
:103C30002C5B0020034B986890F8303003B9704734
:103C4000FFF7C0BD2C5B0020034BD86890F83030E4
:103C500003B97047FFF7B6BD2C5B0020034B186912
:103C600090F8303003B97047FFF7ACBD2C5B0020F3
:103C7000034B586990F8303003B97047FFF7A2BD85
:103C80002C5B0020034B986990F8303003B97047E3
:103C9000FFF798BD2C5B0020034BD86990F83030BB
:103CA00003B97047FFF78EBD2C5B0020034B186AE9
:103CB00090F8303003B97047FFF784BD2C5B0020CB
:103CC00090F89C30022B19D90E4A10B504460068B2
:103CD0000368DB6B934212D172B601234377836B87
:103CE000436362B6022294F8303084F89C2003B912
:103CF00010BD2046BDE81040FFF764BD70470121AC
:103D00009847EFE7E509000090F89C30012B1CD99B
:103D1000104A10B5044600680368DB6B934215D166
:103D200072B601234377836B436362B6012100229D
:103D300094F8303084F89C1084F8B02003B910BD9A
:103D40002046BDE81040FFF73DBD70470121984770
:103D5000ECE700BFE50900008B1E012B08D901F03C
:103D6000FD0101290AD190F82E00C0F340007047F0
:103D700090F82E30DB07F2D5012070470020704705
:103D800072B6836BC91AC16362B67047D0F844C07B
:103D9000C1F800C0816C1160C26C1A60009A036D9A
:103DA0001360019A436D1360029A836D136070472C
:103DB00080ED110AC0ED120A80ED131AC0ED141A3D
:103DC00080ED152AC0ED162A704700BF0023C3639B
:103DD00072B681634163038562B6704772B6826BC7
:103DE000038D9BB262B69818704700BF72B6826BA3
:103DF000C06B62B61044704710B4446884460B46EA
:103E00000C340CD00268174C526AA24226D172B60A
:103E1000826B8B1AC36362B65DF8044B7047806B8C
:103E200091001B1A0029A3EB420313DD93FBF1F26F
:103E300001FB123272B1581804E093FBF1F201FB5E
:103E400012323AB101338342F7D1CCF83C005DF82D
:103E5000044B70471846CCF83C00F8E75DF8044B7B
:103E6000104700BF811E000072B6C36BC91A4163C0
:103E700062B6704743680C3305D072B6C36BC91A7B
:103E8000416362B67047C36B4FEA820CC91ABCF13A
:103E9000000FA1EB420313DD93FBFCF20CFB12328B
:103EA00072B10CEB030104E093FBFCF20CFB123249
:103EB00032B101338B42F7D172B6416362B67047BB
:103EC000194672B6416362B6704700BF72B689B2D6
:103ED000818562B6704700BF72B6836B036362B6BA
:103EE000704700BF72B6426B806B62B6101A7047A3
:103EF00072B6826B62B6436B006B9B1A801A002B02
:103F0000B8BF5B420028B8BF40429842A8BF1846DD
:103F1000704700BF80ED090A704700BF036810B505
:103F2000DB6A04469847B5EE400AF1EE10FA06D077
:103F3000236C002B05DC206CC00F400010BD00205E
:103F400010BD012010BD00BF704700BF00207047AA
:103F500000207047704700BFC06D03681B6818479A
:103F6000C36DB3F93000704710B50446C06D0368E7
:103F70005B689847E36DB3F93030A4F8703010BD3A
:103F8000C06D03689B68184738B50446C86D0D4678
:103F90000368DB699847EB6D2046D3F81D10D3F812
:103FA000212093F8253021606260237238BD00BF64
:103FB000D0F8803043B107EE903A9FED057AF8EEE5
:103FC000677A87EE270A70479FED020A704700BFA5
:103FD0000024F44A00000000026EB2F90630002B03
:103FE00010B504460ADB127ADBB2EAB1174A1901AE
:103FF00002EB03135258DB68C2F88430E06D0368AB
:104000005B6A9847226EB2F90630002B00DA10BDC9
:10401000127ADBB28AB90D4A190102EB0313525826
:10402000DB68C2F8843010BD084A190102EB0313A3
:104030005258DB68C2F88830E0E7044A190102EB05
:1040400003135258DB68C2F8883010BD882B00205B
:10405000013110D00023012280F8672080F86830F9
:10406000036EB3F90430002B10DA90F86730DBB23E
:1040700080F8693070470123002280F8672080F8BB
:104080006830036EB3F90430002BEEDB90F8672044
:10409000DBB26AB10D4A190102EB03135258DB6817
:1040A000C2F8843090F86730DBB280F8693070472E
:1040B000064A190102EB03135258DB68C2F8883034
:1040C00090F86730DBB280F869307047882B0020A9
:1040D000026E38B5B2F906300D460446591C11D0AF
:1040E00013F1130F0ED0002B11DBDBB2127A85B166
:1040F0008AB90D4A190102EB03135258DB68C2F862
:10410000883004E0E06D294603681B6A9847A57271
:1041100038BD002AEDD1044A190102EB03135258AD
:10412000DB68C2F88430F2E7882B0020C06D03689A
:1041300009B19B6918475B69184700BF30B5027B1E
:1041400087B0002A56D0037B0446092B4ED8036E55
:10415000B3F90400421C49D0B3F90020013245D024
:10416000002855DA9A7884F8662094F86620B2FA26
:1041700082F2520984F86520B3F9000000283FDA82
:1041800094F86520C0B2002A5CD0394D020105EBDD
:104190000010AA58C168C2F88410B3F906000028BC
:1041A0003CDA34490022237BD4F8905000920195E8
:1041B00003C9ADF814100D0C049004A903F13000EC
:1041C0000123029111468DF815002B488DF81650E9
:1041D00003F084FF84F8640040B194F88D4000221D
:1041E000002C38D10124204607B030BD00242046E1
:1041F00007B030BD02F0FF031C46204607B030BDBB
:10420000C0B2012115F0FAFF236EB3F90000B7E741
:104210000121C0B215F0F2FF236EA3E70121C0B265
:1042200015F0ECFF226EB2F90630002BB9DB127AE2
:10423000DBB2AAB91A0105EB0313AA58DB68C2F86E
:104240008430AEE70A4D020105EB0010AA58C168A0
:10425000C2F88810A1E70146074803F063FFC6E7EC
:104260001A0105EB0313AA58DB68C2F8883098E7F7
:10427000882B0020D42000204C63002090F874305C
:1042800093B1437F2BB1B0F87230426B02FA83F3E3
:104290004363826B436B9A4219DB90F8743083F06E
:1042A000010380F87430704790F86530C9B2CBB123
:1042B000144B0A0103EB01119B58CA68C3F8842010
:1042C00090F8743083F0010380F874307047B0F8D0
:1042D0007230C9B2826B02FA83F3836390F866305E
:1042E000002BE5D1074B0A0103EB01119B58CA686B
:1042F000C3F8882090F8743083F0010380F874309C
:10430000704700BF882B0020044B186890F88C3051
:10431000022B02D82821FFF7B1BF70471C63002091
:10432000044B586890F88C30022B02D81621FFF706
:10433000A5BF70471C630020054B986890F88C302F
:10434000022B03D84FF0FF31FFF798BF704700BF33
:104350001C630020054BD86890F88C30022B03D8E2
:104360004FF0FF31FFF78ABF704700BF1C6300208A
:10437000054B186990F88C30022B03D84FF0FF31B1
:10438000FFF77CBF704700BF1C630020054B5869D6
:1043900090F88C30022B03D84FF0FF31FFF76EBF3F
:1043A000704700BF1C630020054B986990F88C3063
:1043B000022B03D84FF0FF31FFF760BF704700BFFB
:1043C0001C630020054BD86990F88C30022B03D871
:1043D0004FF0FF31FFF752BF704700BF1C63002052
:1043E000054B186A90F88C30022B03D84FF0FF3140
:1043F000FFF744BF704700BF1C63002090F8743083
:1044000093B1437F2BB1B0F87220436B12B29B1A69
:104410004363826B436B9A4219DC90F8743083F0EB
:10442000010380F87430704790F86530C9B2CBB1A1
:10443000144B0A0103EB01119B58CA68C3F884208E
:1044400090F8743083F0010380F874307047B0F84E
:104450007220C9B2836B12B29B1A836390F86630E4
:10446000002BE5D1074B0A0103EB01119B58CA68E9
:10447000C3F8882090F8743083F0010380F874301A
:10448000704700BF882B0020044B186890F88C30D0
:10449000022B02D82821FFF7B1BF70471C63002010
:1044A000044B586890F88C30022B02D81621FFF785
:1044B000A5BF70471C630020054B986890F88C30AE
:1044C000022B03D84FF0FF31FFF798BF704700BFB2
:1044D0001C630020054BD86890F88C30022B03D861
:1044E0004FF0FF31FFF78ABF704700BF1C63002009
:1044F000054B186990F88C30022B03D84FF0FF3130
:10450000FFF77CBF704700BF1C630020054B586954
:1045100090F88C30022B03D84FF0FF31FFF76EBFBD
:10452000704700BF1C630020054B986990F88C30E1
:10453000022B03D84FF0FF31FFF760BF704700BF79
:104540001C630020054BD86990F88C30022B03D8EF
:104550004FF0FF31FFF752BF704700BF1C630020D0
:10456000054B186A90F88C30022B03D84FF0FF31BE
:10457000FFF744BF704700BF1C6300202DE9F041E6
:104580009C4604460F464FF0FF3300250126744831
:1045900007F1FF382DED028B9FED728A63604FF4B7
:1045A000FA6325729DF8201065722060257384EDF2
:1045B000098A667784ED118A258584ED128AA5859E
:1045C00084ED138A656384ED148AA56384ED158AEE
:1045D000E56384ED168A2664658184F86550258438
:1045E00084F86660256384F8675084F8645084F822
:1045F0006860E68384F86950E3665FFA88F3A4F89C
:104600007060082BA4F8726084F88D6084F8745090
:1046100084ED1E8A84ED1F8A84F88C50C4F898506B
:10462000C4E92055C4E9245504D92046BDEC028BC9
:10463000BDE8F081032F6FF00B0307F1300622660F
:1046400028BF2946484D636084F88D102773023FC8
:10465000C4F85CC00FCDC4F81930C4F80D00604632
:10466000C4F81110C4F81520667600F0E7FAE36D7F
:10467000E066F0EE482AB3F91020204602EE102A38
:10468000B3F90E2001EE902AB3F90C20B8EEC22A3D
:1046900001EE102AB3F90A20B3F90830F8EEE11A56
:1046A00000EE902AB8EEC11A00EE103AF8EEE00AD9
:1046B000B8EEC00AFFF77CFB2C4B43F82840072FCD
:1046C00045D8DFE807F03C342C241C140C0428499E
:1046D000284A294BC4E92412C4F89830A5E7274991
:1046E000274A284BC4E92412C4F898309DE726498C
:1046F000264A274BC4E92412C4F8983095E7254987
:10470000254A264BC4E92412C4F898308DE7244981
:10471000244A254BC4E92412C4F8983085E723497C
:10472000234A244BC4E92412C4F898307DE7224977
:10473000224A234BC4E92412C4F8983075E7214972
:10474000214A224BC4E92412C4F898306DE720496D
:10475000204A214BC4E92412C4F8983065E700BF11
:104760000424002000000000DC2000201C63002046
:10477000292D0000E124000061260000192D000011
:10478000C524000045260000092D0000A9240000D2
:1047900029260000F92C00008D2400000D260000C1
:1047A000E92C000071240000F1250000D92C000044
:1047B00055240000D5250000C92C00003924000034
:1047C000B9250000B92C000021240000A12500001B
:1047D000A92C00000924000089250000D0ED097AE9
:1047E00090ED1F7A77EEA77A90F88C3010B5B4EE82
:1047F000E77A0446F1EE10FA02D8002B2FD110BD53
:1048000063B972B6437F002B3ED1022384F88C300B
:1048100062B6294B1B68C4F8883010BD90F88C3004
:10482000032BECD1C06D0379002B3AD003681B69D0
:10483000984700B2A4F8720094F8692094F86830A0
:1048400094F864109A421D480CBFD4F89820D4F80C
:10485000942003F08BFC042384F88C3010BD0523D6
:10486000D0F8902090F8641084F88C30134803F04E
:104870007DFCE06D037913B94379002BBFD0036849
:10488000BDE81040DB681847036C01330DD0236C82
:10489000012BBDD194F8692094F867309A42B7D1C2
:1048A000B3E74379002BC7D0C0E790F8692090F8B0
:1048B00068309A42EBD1A8E7446300204C630020A3
:1048C00038B5037A04462DED028BB0EE408A002BFA
:1048D00070D0404803F034FDB5EEC08AF1EE10FA16
:1048E00065DD0125237A0BB194ED098AD4ED1E7A9A
:1048F000F4EE487AF1EE10FA03D194F88C30022BE2
:104900004FD994F88C3084ED1F8A012B3FD094F856
:104910008C30042B3BD09FED307AC7EE087AF4EE52
:10492000677AF1EE10FA06D69FED2C7AF4EEC77A8C
:10493000F1EE10FA41D900259FED298A2A46236C11
:10494000C4F88020AB4284ED1E8A01D0002323648A
:10495000D4F88430934208D094F864101D4803F0D2
:1049600083FCD4F88030C4F88430256494F88C300B
:10497000052B02D1002384F88C3094F88C30042B62
:1049800002D1012384F88C30BDEC028B38BDB4F821
:1049900072301BB207EE903AF8EEE77A88EE278A7B
:1049A000B9E772B6256462B6BDEC028B38BD0CD493
:1049B000002597E7FFF712FF8BE7B3EE000A27EE1B
:1049C000800A18F04BFF0246B9E7B1EE488A4FF073
:1049D000FF3587E74C6300200024F44890F4F74C3F
:1049E0000000000090F88C30022B10B443D090F8F7
:1049F0008C30022B3CD890F8743033B3446B437F37
:104A00002BB1037A1BB9026C436B13444363826B73
:104A1000436B9A4253DC037A2BB190F8692090F8EB
:104A200068309A424BD0826B436B9A4263DB037AC5
:104A30002BB190F8692090F867309A425BD0037AE6
:104A400083B9FD2380F869300CE090F86530C9B275
:104A5000002B47D1524B0A0103EB01119B58CA6846
:104A6000C3F8882090F8743083F0010380F8743024
:104A70005DF8044B7047846B038DB0F8702014FA16
:104A800083F312B293FBF2FC02FB1C33002BAED17A
:104A900090F86930FC2BAAD8032380F88C30437A35
:104AA00003F0FF02002BA2D03E4B9C18247B002C6D
:104AB0009DD01132012453F822305C7097E790F8B2
:104AC000692090F868309A4240D1038D9BB2002B48
:104AD0002BD1826B013A8263037290F86630C9B2BF
:104AE000002BB7D02E4B0A0103EB01119B58CA686B
:104AF000C3F88420B6E790F8692090F867309A42AE
:104B000038D1028D838D92B29BB29A4218D2038D16
:104B100001339BB20385038D828D9BB292B2934287
:104B20002CBF002301230372D7E7038D013B9BB207
:104B30000385038D9BB2003B18BF01230372CCE7B2
:104B4000836B0022013383630272C6E7446390F8EB
:104B50006830016EDBB280F8693090F868200B791C
:104B6000A2B10F4A190102EB03135258DB68C2F8D5
:104B700084307DE7446390F86730016EDBB280F8E3
:104B8000693090F867200B79002AEAD1044A1901AC
:104B900002EB03135258DB68C2F8883068E700BFA5
:104BA000882B00204C630020024B28211868FFF757
:104BB00019BF00BF1C630020024B16215868FFF785
:104BC00011BF00BF1C630020024B4FF0FF319868FB
:104BD000FFF708BF1C630020024B4FF0FF31D8687D
:104BE000FFF700BF1C630020024B4FF0FF31186934
:104BF000FFF7F8BE1C630020024B4FF0FF315869ED
:104C0000FFF7F0BE1C630020024B4FF0FF319869A4
:104C1000FFF7E8BE1C630020024B4FF0FF31D8695C
:104C2000FFF7E0BE1C630020024B4FF0FF31186A13
:104C3000FFF7D8BE1C630020704700BF044BB0F9DB
:104C4000062033F912000028B8BF4FF4FA6070470D
:104C5000581F002030B5134C8BB0B0F906508E466B
:104C60000DF1040C112D0FCCACE80F000FCCACE80B
:104C70000F002368CCF8003008DC6A46002352F8A5
:104C8000040F704506D00133092BF8D14FF0FF30E7
:104C90000BB030BD05EBC505034A2A44D0560BB016
:104CA00030BD00BF081E0020C41F0020B8FE411AFE
:104CB000BDEEC11AF8FE600AF8FE611AFDEEE00AC8
:104CC000B8FE400AFDEEE11A11EE101ABDEEC00A60
:104CD000B8FE422A10EE902ABDEEC22A70B590F9B5
:104CE00012300446818111EE901A9D1C12B2C181CE
:104CF00018BF002390F9131008BF0123428101312E
:104D000012EE100AA37410EE103A20821BB201D1E9
:104D10000621E17494F91410013101D105212175A6
:104D2000591C204608BF012301321946238108BFC0
:104D300063811D46FFF78EFFB4F90A606086204646
:104D40003146FFF787FFA08695FBF6F5258670BDF7
:104D5000B8FE400AFDEEC07AF8FE600A38B517EEDC
:104D6000901AFDEEE07A4A1C17EE904A08BF012126
:104D7000A1420FDD0546FFF76DFF01300AD0631C2D
:104D80000AD017EE901A2846FFF764FF013018BFCB
:104D9000012038BD002038BD012038BD54207047A7
:104DA000B0F90810B0F906300129D8BF00210D2B49
:104DB0000CD005DC0C2B08D189B2C06B13F0B0BB52
:104DC0000E3B9BB2012BF7D97047704789B2C06B7D
:104DD00013F04EBA10B50446B0F93000012811DDC9
:104DE000B4F90A10B4F906300129D8BF00210D2BFF
:104DF00014D008DC0C2B05D1E06B89B213F090FBCA
:104E0000B4F9300010BD0E3B9BB2012BFAD8E06B19
:104E100089B213F085FBB4F93000F3E7E06B89B297
:104E200013F026FAB4F9300010BD00BF2DE9F041AF
:104E300090F9153082B004469A1C25D0DAB2012AC6
:104E400005D9204602B0BDE8F041FFF7F5BE826B00
:104E5000B2F90C20002A54DBD2B23149100101EB27
:104E600002120958D2688968114214BF0122002237
:104E70009B1A2046B3FA83F35B0984F8253002B00D
:104E8000BDE8F041FFF7D8BE264D826A2B689B1A19
:104E9000C82BD6DDB0F906300C3B032B37D8DFE842
:104EA00003F002320202C06B03681B699847C0F32B
:104EB000C066C0F3007EC0F3806CC0F340614EEA70
:104EC0000602C0F34078C0F38077C30F4CEA0202B9
:104ED00001900A432868A677A062204684F81F80C4
:104EE00084F820E084F8217084F822C084F823102C
:104EF00084F8243084F8252002B0BDE8F041FFF7A3
:104F00009BBE0022B4E7C06B12F0DEFBCFE70022AD
:104F10001346114694461746964690461646D9E7DC
:104F2000882B00204463002010B52DED048B04462F
:104F3000B0EE418AF0EE618AB0EE429AFFF708FFC8
:104F400040B1B4F906300C2B07D00E2B2ADC0C2B09
:104F50002DDC0020BDEC048B10BD40F2DC51B8FE0E
:104F6000481AFDEEC17AF8FE681A17EE903AFDEE87
:104F7000E17A5C1C17EE902A01D08B42E9D8541CD0
:104F800001D09142E5D3B8FE492AFDEEC27A17EE70
:104F9000903A5A1CDED08B42BDEC048B8CBF0020B3
:104FA000012010BD0F2BD4D140F6AC51D7E740F60D
:104FB000B831D4E738B50446FFF778FEB4F90E30BF
:104FC0005A1C3DD0B4F910200132B4F90C2008BFAE
:104FD0002382013200F0F980B4F906500C2D44D040
:104FE0000D2D00F0AC800E2D00F0F9800F2D00F09B
:104FF000918094F915305A1C18BF012262779BB931
:10500000A36BB3F90C00002808DAB4F930300022A1
:10501000013B627118BF0123237138BD0221C0B268
:1050200015F0ECF894F91530012BEED1A36BB3F920
:105030000C000028E9DB0021C0B215F0DFF8E4E73E
:10504000B4F9065040F6C413DFED6D7A0C2D9FEDD8
:105050006D0A18BF4FF4167307FE800AE38123829E
:1050600018F0FCFB0C2DA081BAD1674B4020A36146
:1050700015F046FAA36B05464FF0FF3294ED060A91
:10508000998812F0E9FC2846E56312F049FE94F98C
:105090001210E06B003918BF012112F005FA2368E5
:1050A0002046DB6898470021E06B12F061FBB4F901
:1050B0000E3007EE903AB4F90C3007EE103AB4F91E
:1050C0000630F8EEE77AB8EEC77A0C2B87EE270A9F
:1050D00010D00D2B6CD00E2B19D19FED4C7AE06BBC
:1050E00067EE877AFCEEE77A17EE903A99B212F003
:1050F00007FF7EE79FED457AE06B67EE877AFCEE6F
:10510000E77A17EE903A99B213F006FA71E70F2B8F
:10511000E3D06EE73E4B7820A36115F0F1F9A36B65
:1051200005464FF0FF32998894ED060A13F026F9F0
:10513000384B2846E5632B6013F00EF9A7E7344B94
:105140003C20A36115F0DCF9A36B054694ED060A3B
:10515000998812F0E1FE2846E56313F017F8E06B3A
:10516000032112F0FBF9E06B002112F0EDF9E06B86
:10517000002112F0C5F9E06B002112F0B7F9E06BE5
:10518000032112F0A3F9E06B012112F0D3F9E06BD7
:10519000012112F01BFAE06B002112F04DFAE06BD6
:1051A000012112F025FA23682046DB6898477EE744
:1051B0009FED167AE06B67EE877AFCEEE77A17EEE2
:1051C000903A99B212F0F8FF13E700EE103ABAEEF7
:1051D000EF0A18F043FBB4F90650A081FEE60C4B31
:1051E0007820A36115F08CF9A36B05464FF0FF32D0
:1051F00094ED060A998813F0C1F82846E5639BE709
:1052000000409C4400009643AE47E13D8104353F99
:105210009A99993DAC25002082634FF6FF72017781
:1052200082860F490F4A016302605A681968C0F804
:105230000A209A68DB68C0F80610C0F80E20C0F893
:10524000123010B50024DFF820E08480C0F81D4043
:10525000C0F82140C0F818E080F82540846210BDF5
:105260000100FFFF8C240020AE47E13DB0F906307D
:105270000C2B03D00E3B9BB2012B05D80539C06B1C
:1052800018BF012112F074BA704700BF10B5044670
:1052900090F91310FFF7EAFFB4F90E3007EE903AD9
:1052A000B4F90C3007EE103AB4F90630F8EEE77AAC
:1052B000B8EEC77A0C2B87EE270A14D00D2B20D01E
:1052C0000E2B02D00F2B00D010BD9FED157AE06B96
:1052D00067EE877ABDE81040FCEEE77A17EE903A69
:1052E00099B212F00DBE9FED0E7AE06B67EE877AF1
:1052F000BDE81040FCEEE77A17EE903A99B213F051
:105300000BB99FED077AE06B67EE877ABDE8104036
:10531000FCEEE77A17EE903A99B212F04DBF00BF5B
:105320008104353F10B5044690F91410FFF79EFF35
:10533000B4F910305A1CB4F9062008BFB4F90E3085
:105340000C2A07EE903AF8EEE77A16D00D2A24D010
:105350000E2A02D00F2A00D010BD9FED177AB7EEAB
:10536000000AE06B67EE877ABDE81040FCEEE77A52
:1053700017EE903A99B212F0C3BD9FED0F7AB7EED7
:10538000000AE06B67EE877ABDE81040FCEEE77A32
:1053900017EE903A99B213F0BFB89FED077AE06B21
:1053A00067EE877ABDE81040FCEEE77A17EE903A98
:1053B00099B212F001BF00BF8104353F38B50446F1
:1053C00011B30368344A5B69934241D190F91310D9
:1053D000FFF74CFFB4F90E3007EE903AB4F90C30F9
:1053E00007EE103AB4F90630F8EEE77AB8EEC77A6D
:1053F0000C2B87EE270A1DD00D2B3AD00E2B2AD06E
:105400000F2B28D0012038BD0D460621FFF72EFFB7
:10541000B4F906300D2B39D009DD0E3B9BB2012BC0
:10542000F0D8E06B002112F0C7F9012038BD0C2B39
:10543000F7D0E7E79FED197AE06B67EE877AFCEE2D
:10544000E77A17EE903A99B213F066F8012038BD6A
:105450009847012038BD9FED117AE06B67EE877A9F
:10546000FCEEE77A17EE903A99B212F049FD01206E
:1054700038BD9FED0A7AE06B67EE877AFCEEE77A3B
:1054800017EE903A99B212F097FEBBE72946E06B0F
:1054900012F092FEB6E700BF8D3300008104353F65
:1054A00010B590F913300446062B04D090F914304F
:1054B000062B00D010BDB4F90E30B4F9062007EE6B
:1054C000903A0C2AF8EEE77A5DD00D2A00F085803C
:1054D0000E2A35D00F2A33D04FF47A7014F0D4FD51
:1054E00023684B4A5B69934265D194F913102046B7
:1054F000FFF7BCFEB4F90E3007EE903AB4F90C3069
:1055000007EE103AB4F90630F8EEE77AB8EEC77A4B
:105510000C2B87EE270A52D00D2B6BD00E2B01D00F
:105520000F2BC7D19FED3B7AE06B67EE877ABDE822
:105530001040FCEEE77A17EE903A99B212F0E0BC18
:105540009FED347AB7EE000AE06B67EE877AFCEEE7
:10555000E77A17EE903A99B212F0D2FCB4F906301D
:105560000C2B1FD00E3B9BB2012BB5D8E06B00215A
:1055700012F082F9E06B012112F06EF90121E06B6B
:1055800012F0F6F8A8E79FED237AB7EE000AE06B79
:1055900067EE877AFCEEE77A17EE903A99B212F04E
:1055A000BBFFDBE7E06B012112F03AF90121E06B70
:1055B00012F0DEF890E72046BDE8104018479FED56
:1055C000157AE06B67EE877ABDE81040FCEEE77A6B
:1055D00017EE903A99B212F09FBF9FED0E7AE06BF2
:1055E00067EE877AFCEEE77A17EE903A99B212F0FE
:1055F000E3FDB3E79FED077AE06B67EE877ABDE8DE
:105600001040FCEEE77A17EE903A99B212F0D4BD52
:105610008D3300008104353F82B02DED028B88B0C0
:105620000AA981E80C009DF82A30BDF92820591EEE
:10563000012901D8013A0C3307EE902A06EE903A80
:10564000B7EE004B9DF82B30B8EEE75BB8EEE66B9B
:105650009FED1B7B9FED1C0B9FED1D1B85EE072B0C
:1056600085EE003BB0EE007B36EE046B04EE103AA4
:1056700025EE015BB8EEC44B9FED178BBBFE455B7F
:105680009FED170B9FED181B26EE086BBBFE466BBC
:10569000BBFE422B37EE427BBBFE433B37EE037B28
:1056A00037EE057B37EE067B37EE047B37EE000BDB
:1056B00008B0BDEC028B02B0704700BFAFF30080B2
:1056C0000000000000005940000000000000794088
:1056D0000000000000D4764061545227A0993E405B
:1056E00000000080A2423A410000000000000000DB
:1056F00082B000B591B00DF1480C14A98CE80C00F3
:1057000084460FC98DE80F0012AB60460CCBFFF743
:1057100083FFB3EE087B9DED141BB4EEC71BF1EEC7
:1057200010FA0ADBB7EE006B31EE471B30EE060BCA
:10573000B4EEC71BF1EE10FAF6DAB5EEC01BF1EECF
:1057400010FA0CD5B3EE086BB7EE007B31EE061BFA
:1057500030EE470BB5EEC01BF1EE10FAF6D411B0E7
:105760005DF804EB02B07047B6EE007B86B09FEDAB
:10577000466B30EE077BBBFE477BB4EEC67BF1EE9B
:1057800010FA19DDB7EE005BB5EE006B9FED404BF4
:105790009FED413B37EE055B37EE444B84EE037BD8
:1057A000BDEEC77BB8EEC77B27EE066B35EE075B19
:1057B000BBFE467B35EE477BB2EE0B3B9FED386B75
:1057C0009FED391B9FED3A5B37EE067B9FED3A4B21
:1057D00037EE411B9FED3A2B81EE056BBBFE466B0E
:1057E00026EE055BBBFE455B37EE457B87EE045B33
:1057F00037EE027BBBFE455B25EE044BB4EEC35B8C
:10580000BBFE444B37EE447BF1EE10FABBFE477B08
:10581000FCEEC77B17EE903AC3701CD5B7EE007B49
:1058200035EE475BFCEEC57BCDED017A9DF804308B
:10583000022B83701CD99FED247B36EE477BBDEE97
:10584000C77B17EE103A1BB203809FED1D7B80EDE6
:10585000027B06B07047B2EE0A7B35EE475BFCEE8A
:10586000C57BCDED017A9DF80430022B8370E2D820
:105870009FED177B36EE476BBDEEC66B16EE103A0A
:105880001BB2E1E7AFF30080000000008C8A4141C9
:1058900000000040D07D3C410000000088D5E14080
:1058A0000000000000D097406666666666865E402F
:1058B0000000000000D4764061545227A0993E4079
:1058C000000000000000000000000000006CB2407A
:1058D00000000000006BB240B3EE087B00B5B4EEF0
:1058E000C71B2DED028BF1EE10FA85B0B0EE418BA7
:1058F0000ADBB7EE006B38EE478B30EE060BB4EEEA
:10590000C78BF1EE10FAF6DAB5EEC08BF1EE10FAB5
:105910000CD5B3EE086BB7EE007B38EE068B30EE9D
:10592000470BB5EEC08BF1EE10FAF6D4B0EE481B83
:10593000FFF71AFF80ED028B05B0BDEC028B5DF81E
:1059400004FB00BF06292DE9F041044684B009D0CC
:10595000202901D00A297BD123291BD0002004B0A3
:10596000BDE8F081D0F8B830002BF7D14068232291
:1059700084F86C3040F23A61032884F86B204FF0D1
:105980000402A4F868100CBF41235023C4F8B820C7
:1059900084F86A30D4F8B82094F86830012A09DD18
:1059A000A3F13A02012A0ED900230120237004B08A
:1059B000BDE8F081A3F13A010129F5D8224492F81B
:1059C0006720232A5AD0A16E364A0A40B2F50C5FEE
:1059D00054D03B2B0CBF0123002323705DD104F175
:1059E000680528461CF04CF9C7B27E1EF6B2042E9C
:1059F00022D904F16401A6F10308284600223144AB
:105A000010F8013F1A448142D2B2F9D12644264906
:105A100001A8A0441BF0ECF996F867309DF804202B
:105A200084F8BC3098F868309A4205D19DF805207A
:105A300096F866309A4228D01C490022042301209F
:105A4000A16684F86C20C4F8B83004B0BDE8F081D9
:105A50000D2983D0D0F8B8304E2B20DD4F224E23B5
:105A60002344A018232983F868104FF00003C4F8DA
:105A7000B82080F868307FF471AF8BE700231846B8
:105A8000C4F8B83084F8683069E7043F0023012087
:105A900054FA87F787F8683061E701205FE75A1CFE
:105AA000DEE700BF00FFFF00702200203A0630232F
:105AB000B0F869100022054B143001808270016833
:105AC0000B40B3F50C5F08BF4270704700FFFF004A
:105AD000D0F8B8200023042A10B50376044600F15C
:105AE000180304DC144400221846227510BD00F18E
:105AF0006B01043A18461BF07FFAD4F8B82003462D
:105B0000144400221846227510BD00BF024B90F8C5
:105B1000BC2018461A707047303E0020D0F8B820DC
:105B20006AB18318012A93F86730A3F12303B3FA0B
:105B300083F34FEA531300D123B918467047134635
:105B40001846704790F867300022A3F12303C0F88D
:105B5000B82080F86820B3FA83F35B09EDE700BF53
:105B6000034600220120C3F8B82083F8682070475C
:105B700000207047F0B5437B1746084643B1012B20
:105B80002DD0022B09D0032B0CD04FF0FF30F0BDED
:105B90001146BDE8F04016F091B81348BDE8F0405A
:105BA00014F03CB8002A18DD013A104C01F1FF3E18
:105BB00001EB020C94F8103200221EF8016F5D1CFC
:105BC0002344F44583F80F6105F07F0304EB0305DC
:105BD00084F8103285F80F21EFD13846F0BD044823
:105BE000BDE8F04014F01AB838370020784600209D
:105BF000F8370020204A002330B402604FF47A7254
:105C00001E4C1F4D43608381826023782A7842FABC
:105C100003F1C90722D5591CC9B242FA01FC21700F
:105C20001CF0010F13D0991CC9B242FA01FC21707B
:105C30001CF0010F0BD0D91CC9B242FA01FC217033
:105C40001CF0010F12D00433237030BC70470123C5
:105C500041738B4013432B7030BC70470121437359
:105C600001FA03F313432B7030BC704701234173D7
:105C70008B401A432A70EFE768240020A46A0020B2
:105C80009C6A00202DE9F84F437B064688463BB1CD
:105C9000012B1FD0022B25D0032B2BD0BDE8F88F72
:105CA0001E4D40F2EE2A1E4CDFF884902F68DFF87C
:105CB00084B016F081F8237813B399F80030DB072D
:105CC0001ED52B68DBF800209B1A0E2B18D9737B8E
:105CD000012BDFD100224146124813F0DFFB737B1A
:105CE000022BD9D1002241460F4813F0D7FB737B1A
:105CF000032BD3D141460D48BDE8F84F01F02EBC2F
:105D00002B682278DB1B2AB1B3F5FA6FDFD816F0C7
:105D100053F8CEE75345FAD9D9E700BF44630020D2
:105D2000B76A0020F8370020383700207846002076
:105D3000B66A00207C6A002010B5437B0446012B24
:105D400004D0022B08D0032B0CD010BD084813F050
:105D500071FB637B022BF6D1064813F06BFB637B70
:105D6000032BF2D10448BDE8104001F001BC00BF94
:105D7000F83700203837002078460020437B0A4659
:105D8000D3B1012B21D0022B1CD0032B17D1104BE8
:105D9000012000B593F810C24FF0000E0CEB00018B
:105DA0009C448CF80F2101F07F02991883F810228F
:105DB00081F80FE15DF804FB084615F069BF4FF06C
:105DC000FF307047034813F045BD034813F042BD50
:105DD0007846002038370020F8370020437B3BB15D
:105DE000012B28D0022B05D0032B06D000207047B2
:105DF00015F0FABE114813F073BA114991F80DC1AC
:105E000001EB0C03587B0028F1D091F80E21002003
:105E1000A2EB0C02D2B207E0D8B20CEB000351FAAD
:105E200083F35B7B002BE2D0904200F10103DED0D4
:105E3000FF28F1D17047034813F052BA38370020D9
:105E400078460020F8370020437B43B1012B0BD06C
:105E5000022B06D0032B0AD1064801F047BB15F0F0
:105E600007BF054813F08EBA044813F08BBA4FF001
:105E7000FF3070477846002038370020F837002080
:105E8000437B33B3012B29D0022B24D0032B2BD1FE
:105E900010B5174C94F80DC104EB0C03587B00B3FC
:105EA00094F80EE10023AEEB0C0E0CF1010C5FFA3E
:105EB0008EFE07E0FF2B54FA82F203F1010307D0B4
:105EC000527B2AB1D9B29E4501EB0C02F2D141B10D
:105ED00010BD15F067BE074813F016BA064813F058
:105EE00013BA4FF0FF3010BD4FF0FF30704700BFC6
:105EF0007846002038370020F837002010B5437B63
:105F0000044623B1012B07D0022B0BD010BD15F096
:105F100009FF637B012BF7D1054813F07DFA637B02
:105F2000022BF3D10348BDE8104013F075BA00BF4F
:105F3000F8370020383700202DE9F0432DED028B93
:105F4000B0EE408B87B006460D46252128461BF053
:105F500041F90446002C64D06378A3F13002662B2B
:105F6000D2B221D02E2B12D0092AF3D8A3782E2B0F
:105F7000F0D1E3782F2BEDD9392BEBD82179662995
:105F8000E3D1303B10464FF00508D9B210E0A378BA
:105F9000303BDBB2092BDDD8E278662ADAD119462C
:105FA00000204FF0040803E000214FF002080846EB
:105FB000B7EEC80B01AA14F0DBFA601B4FF0000922
:105FC000002809DD09F101014B4615F809205FFAA7
:105FD00081F9F2548145F5DB002702E012F8143C08
:105FE000735501A809EB07051BF04AFE07F11803DA
:105FF0008742EDB20DEB030207F10103DFB2EDD3EF
:10600000A8EB050802E0E25D7255DDB205EB08077A
:1060100020461BF035FE6B1CFFB28742F3D30023F2
:10602000735507B0BDEC028BBDE8F08300000000A3
:1060300030B58E468DB01D46002A38D1ADF81420FB
:10604000032D3ED05A4C0DF1180C022D9FED507BC4
:106050009FED515B0FCC30EE070BACE80F00BBFEA1
:10606000406B30EE460B94E8030020EE050B4CF835
:10607000040BACF80010BBFE407B30EE477B27EEF4
:10608000057B58D0012D72D0002D57D1FDEEC67B77
:1060900006A9BDEEC00B05AA70468DF8235017EE79
:1060A000903A8DED000A1AF0A3FE0DB030BDB5EEAA
:1060B000C00BF1EE10FA54D42B23032DADF814309D
:1060C000C0D13B4D06AC9FED367B9FED336B9FED12
:1060D000364B30EE070B0FCDBBFE405B30EE450B71
:1060E00020EE060BBBFE407B30EE477BBDEEC00BC7
:1060F00027EE067B8DED000ABBFE476B37EE466B45
:10610000BDEEC77BFDEEC57B26EE046B8DED017AFF
:10611000BDEEC66B8DED026A0FC495E8030017EE65
:10612000903A05AA44F8040B7046218006A91AF09B
:106130005FFE0DB030BD00238DF82830BDEEC77B6B
:1061400006A9FDEEC67B05AABDEEC00B70468DED1F
:10615000017A17EE903A8DED000A1AF049FE0DB063
:1061600030BD2D23B1EE400BADF8143068E7B1EE31
:10617000085B00212E2231238DF8281087EE057B45
:106180008DF823208DF82630D8E700BFAFF30080CC
:10619000F78F85E81038223F0000000000004E40D5
:1061A000094890169BD94D3E000000000088C3406E
:1061B000D8220020000000002DE9F0418CB00E46EE
:1061C00015469DF848E02BB1B5EEC00BF1EE10FA84
:1061D00053D42B23BEF1030FADF8143055D006AFC6
:1061E0005B4C4FF00008BEF1010FBC469FED507BA9
:1061F0009FED516B0FCC30EE070BACE80F00BBFEF0
:10620000405B30EE450B94E8030020EE060B4CF8A3
:10621000040B8DF82880ACF80010BBFE407B30EEFC
:10622000477B27EE067B0FD18DF82380002D6ED0A3
:106230003323BEF1020F8DF81C300AD0BEF1010FDE
:1062400065D00CB0BDE8F081002DF1D1BEF1020F98
:10625000F7D1BDEEC77B3946FDEEC57B05AABDEE85
:10626000C00B30468DED017A17EE903A8DED000AA5
:106270001AF0BEFD0CB0BDE8F0812D23BEF1030F76
:10628000B1EE400BADF81430A9D106AFDFF8C0C0B5
:106290009FED2B7B9FED286BBCE80F0030EE070BCA
:1062A0003C469FED294BBBFE405B30EE450B0FC4D7
:1062B00020EE060B9CE80300BBFE407B30EE477BE4
:1062C00044F8040B218027EE067BBBFE476B37EEBC
:1062D000466B26EE046B15B133238DF81C30BDEEF2
:1062E000C77B3946FDEEC57B05AABDEEC66B3046C1
:1062F000BDEEC00B8DED017A17EE903A8DED026A7E
:106300008DED000A1AF074FD0CB0BDE8F081FDEED1
:10631000C57B05AABDEEC00B3946304617EE903A54
:106320008DED000A1AF064FD0CB0BDE8F08100BFED
:10633000F78F85E81038223F0000000000004E4033
:10634000052D1AEE00A8823E0000000000408F409C
:10635000C0220020F8B508460D4616461F461BF021
:106360008FFC00B220B30628D4BF00240124FCB95E
:10637000002810DD2CB92A782D2A18BF2B2A00D12D
:1063800037B915F804C0ACF1300CBCF1090F0FD8C7
:1063900001348442EED1284619F074F847F6FF72B2
:1063A00003460244B2F5803F02D201203380F8BD9B
:1063B0000020F8BD10B5144682B01278ADF8062062
:1063C0000DF10602FFF7C6FFBDF906309AB2FF2AAB
:1063D0008CBF0020237002B010BD00BFF8B5084686
:1063E0000D4616461F461BF04BFC00B2002814DD7C
:1063F000002423462CB929782D2918BF2B2900D138
:1064000047B915F804C0BCF12E0FACF130010BD028
:1064100009290CD801348442ECD1284619F02EF811
:10642000012086ED000BF8BD0BB90123F2E7002037
:10643000F8BD00BF000000002DE9F043002383B049
:106440001578ADF80630002D41D0064610461446AA
:106450000F461BF015FC062839D82E2120461AF0CD
:10646000B9FE40B101233A462146304603B0BDE8AB
:10647000F043FFF7B3BF2D2D2DD02B2D4FF001088A
:1064800008BF01343A2120461AF0A4FEC0B10546E7
:106490004FF0000905F8019B28461BF0F1FB02288C
:1064A00015D14B4629460DF106023046FFF752FF43
:1064B00068B1BDF906302D2B18BF1E2B00D033B9A3
:1064C00000232146304601AAFFF744FF38B90020D7
:1064D00003B0BDE8F08301344FF0FF38D2E7BDF9D7
:1064E000063007EE908A04EE103ABDF90430B8EE9B
:1064F000E77BB8EEC44B05EE103A9FED073BB8EED4
:10650000C55B84EE036B36EE056B26EE077B87EDED
:10651000007BDDE7AFF300800000000000004E408C
:106520002DE9F047144686B01E4600222578002348
:1065300007468846202DCDE9042303D114F8015FD6
:10654000202DFBD020461BF09BFB0D2825D9A6F162
:10655000020900235FFA89F96373B9F1010F04D9C5
:106560000D22012E01D1072A12D14FF0000A6378C3
:106570006A4601A98DF80530384653468DF8045017
:106580008DF806A0FFF7E6FE10B1A3783A2B11D0E4
:106590000025284606B0BDE8F087A6F1020902B240
:1065A0005FFA89F9B9F1010FDBD8082ADDD0092A91
:1065B000EEDDDAE7E3780DF1020202A938468DF844
:1065C000083023798DF80AA08DF809305346FFF77B
:1065D000C1FE05460028DBD0B9F1010F45D9012ED7
:1065E0003CD00022BDF9003099B21729D0D8BDF9AE
:1065F000021088B23B28CBD890B20928C8D89DEDAC
:10660000043BB5EEC03BF1EE10FAC1D49FED1E7B0A
:10661000B4EEC73BF1EE10FABADC07EE901A9FED2C
:106620001C0BB8EEE75B07EE902A9FED1B1BB8EE44
:10663000E76B07EE903A85EE004B86EE015BB8EE15
:10664000E77B9FED172B83EE026B34EE077B37EE73
:10665000057B37EE067B88ED007B9AE763792E2B6E
:1066600096D1A279303A12B2BCE763793A2B8FD136
:106670005346A11D384604AAFFF7B0FE0028B0D14A
:1066800086E700BFAFF300809CA223B9FCFF4D401A
:106690000000000000004E400000000000C08240EA
:1066A000000000000020AC4070B5032304460D46F6
:1066B0001646FFF735FF08B1012070BD02233246B0
:1066C00029462046FFF72CFF0028F5D132462946FF
:1066D00020460123BDE87040FFF722BF0000000004
:1066E0002DE9F04F157887B014461E46002200238E
:1066F000202D804689469DF840A0CDE9042303D192
:1067000014F8015F202DFBD02046AAF102071BF0F0
:10671000B7FA0D28FFB22FD90023012F637305D9D3
:106720000D200346BAF1010F00F0A6804FF0000AD9
:106730009EB32D2D00F0A7802B2D18D14FF0010B0B
:106740006278002301A940468DF80420A2788DF8D4
:1067500006308DF805206A46FFF7FCFD38B1E37876
:10676000033403F0EF022A2A31D0DF2B2FD000258B
:10677000284607B0BDE8F08F012F03B2D2D8B3F19D
:10678000090A18BF4FF0010A0A2BC8BF4FF0000AD0
:10679000BAF1000FEBD1002ECBD163786A4601A984
:1067A00040468DF80530A3788DF804508DF80630FA
:1067B00033468DF80760FFF7CDFD0028D7D0E3788A
:1067C00003344FF0010B03F0EF022A2ACDD1627897
:1067D000002302A940468DF80820A2788DF80A30DF
:1067E0008DF809200DF10202FFF7B4FD05460028DF
:1067F000BDD0012F02D8BAF1000F47D0002EBDF94D
:10680000003015BF6FF0590200225A214FF4B471C5
:106810009342ACDB8B42AADCBDF9022091B23B294A
:10682000A5D89DED044BB5EEC04BF1EE10FA9ED409
:106830009FED1F7BB4EEC74BF1EE10FA97DC07EE2D
:10684000902A9FED1D1BB8EEE75B07EE903A9FED97
:106850001C2B85EE013B84EE025BB8EEE76B07EE86
:1068600090BAB8EEE77B33EE066B36EE056B26EE9C
:10687000077B89ED007B7BE706283FF459AF092BA6
:106880007FF475AF52E74FF0FF3B59E7E3783A2BBF
:106890000CD02379272B7FF46AAF611D404600237B
:1068A00004AAFFF79BFD0028A8D160E7211DF5E7AA
:1068B0001D5A643BDFFF4D400000000000004E40C9
:1068C000000000000020AC40F0B5032583B0044672
:1068D0000F46009516461D46FFF702FF10B1012036
:1068E00003B0F0BD022332463946204600932B46C2
:1068F000FFF7F6FE0028F2D14FF0010C2B4632468E
:1069000039462046CDF800C0FFF7EAFE03B0F0BDDF
:106910000120704700207047036812785B691847B0
:1069200070B50021058A8184C5B1066A8C460B4684
:10693000DA0803F0070E01310CF10104B25C8BB2EE
:1069400042FA0EF2D20703D51FFA84FCA0F824C045
:106950009D42EDD8BCFA8CF0400970BD012070BD9D
:106960000020704710B5044681805AB9181E4FF0B8
:106970000101228218BF0120A362218384F82D0027
:10698000012010BDCA08181EA362134618BF0120BB
:106990002182013384F82D0023830029F0D008469A
:1069A00013F0B0FD0346208B636113F0ABFD03468B
:1069B000208BE36113F0A6FD238B2062002BDFD038
:1069C0000023FF209AB2E1690133885499B2228BE7
:1069D0008A42F7D8002AD3D0002318469AB2216AF7
:1069E000013388549AB2218B9142F7D8012010BD0F
:1069F000018A002952D02DE9F84F90F82F30054632
:106A0000B3BB03685C4ADB68934240F0828095F830
:106A10002D601422E8694FF0000EEC894FF0010C54
:106A2000DFF85CB10134A4B28C42EC8122D24FEA8F
:106A3000D40804F0070900EBD40A2EB1DBF80030CB
:106A40002F6BDB1B002B24DB2B6A13F8088048FA22
:106A500009F808F001089AF8003043FA09F303F046
:106A6000010358EA03031AD1013A12F0FF02D9D107
:106A7000BDE8F88F95F82E300BB185F82FC04FF098
:106A800000098246A5F80EE0C8464C4685F82EC09F
:106A9000D3E74FF0000885F82EE0DCE770470023CD
:106AA00085F82E30B8F1000F1FD0D5F808C01FFAB6
:106AB0008CF6B4FBF6F306FB13439BB273BB96B1A3
:106AC000234614FA8CFE05E0825C3A41D20709D4D1
:106AD0009E454DD08B424FEAE30203F0070703F1D6
:106AE0000103F1DB012633461AE02B6821466E696B
:106AF00028461B6998473055EB890121EC69D80875
:106B000003F00703225C01FA03F322EA0303235490
:106B1000AEE798470028ABD1298A78E701231E46C3
:106B20002868164A87696969974201EB040C1AD1F3
:106B3000436928460A5D21469847002E98D00022D6
:106B40000127EB892C6A13440132D81003F00703A4
:106B5000215C07FA03F321EA0303235493B29E4214
:106B6000EFD8BDE8F88F624621462846B847E4E7EB
:106B70005FFA8CF3D4E700BF614A0000194A0000B5
:106B8000446300202DE9F84FD0F800E08146334DF2
:106B9000DEF80810A9425BD10020B9F81060A9F80E
:106BA000240096B1D9F820700346DA0803F00704F0
:106BB0000130BA5C83B22241D40704D5B9F824204D
:106BC0000132A9F824209E42EFD8254EA942DFF8D1
:106BD0009480376831D14FF00003B9F810C0A9F89C
:106BE0002430BCF1000F31D00021D9F820A0084694
:106BF0000B46DA0803F0070B0131441C1AF8022097
:106C00008BB242FA0BF2D20702D5A0B2A9F8240047
:106C10009C45EED8D0B1DEF80430002148469847B4
:106C2000012013F031FA3368DB1B43450BDCD9F844
:106C300000E0DEF80810A942CDD04846884728B9C0
